:020000040800F2
:1000000098550020810200084F3900086D3600081D
:100010004D390008E11100086140000800000000AF
:10002000000000000000000000000000C101000806
:10003000ED120008000000001D020008153A00083B
:100040009B0200089B0200089B0200089B0200081C
:100050009B0200089B0200089B0200089B0200080C
:100060009B0200089B0200089B0200089B020008FC
:100070009B0200089B0200089B0200089B020008EC
:100080009B0200089B0200089B020008F111000877
:10009000E51100089B0200089B0200089B02000873
:1000A0009B0200089B0200089B0200089B020008BC
:1000B0009B0200089B0200089B0200089B020008AC
:1000C0009B0200089B0200089B0200089B0200089C
:1000D0009B020008554000089B0200089B02000894
:1000E0009B0200089B0200089B0200089B0200087C
:1000F0009B0200089B0200089B0200089B0200086C
:100100009B0200089B0200089B0200089B0200085B
:100110009B0200089B020008E13A00089B020008CD
:100120009B0200089B020008651200089B02000861
:100130009B0200089B0200089B02000809120008AD
:10014000FD1100089B0200089B0200089B020008AA
:100150009B0200089B0200089B0200089B0200080B
:100160009B0200089B0200089B0200089B020008FB
:100170009B0200089B0200089B0200080000000090
:100180009B0200089B0200089B0200089B020008DB
:100190009B0200089B0200089B0200089B020008CB
:1001A00000000000000000009B020008DFF80CD0F7
:1001B00000F0C0FD004800471D5000089855002081
:1001C0002C4B19680868B0E8F04F80F30988BFF33A
:1001D0006F8F4FF0000080F311887047000000001F
:1001E00008480068006880F308884FF0000080F33A
:1001F000148862B661B6BFF34F8FBFF36F8F00DF15
:1002000000BF00BF08ED00E0DFF80C00016841F41A
:1002100070010160704700BF88ED00E0EFF30980D6
:10022000BFF36F8F134B1A681EF0100F08BF20ED3D
:10023000108A20E9F04F106009B44FF0500080F3AD
:100240001188BFF34F8FBFF36F8F05F0CFFF4FF0D3
:10025000000080F3118809BC19680868B0E8F04F05
:100260001EF0100F08BFB0EC108A80F30988BFF3AE
:100270006F8F70472C000020EFF30580704700005F
:100280000648804706480047FEE7FEE7FEE7FEE730
:10029000FEE7FEE7FEE7FEE7FEE7FEE7D13A0008ED
:1002A000AD0100082DE9F05F0546002092469B460F
:1002B00088460646814640241BE02846414647467C
:1002C000224600F010FC53465A46C01A914110D302
:1002D00011461846224600F0F7FB2D1A67EB01087D
:1002E0004F4622460120002100F0EEFB17EB0009EB
:1002F0004E41201EA4F10104DFDC484631462A4667
:100300004346BDE8F09F40EA01039B0703D009E0A4
:1003100008C9121F08C0042AFAD203E011F8013BF1
:1003200000F8013B521EF9D27047D2B201E000F84A
:10033000012B491EFBD270470022F6E710B5134689
:100340000A4604461946FFF7F0FF204610BD00009C
:100350000FB400B58DB010A909900B9000914FF02B
:10036000FF300A9000200C90054806900548079041
:100370006A4609A80F9900F0DFFB0DB05DF814FB89
:10038000550B0008730B00082DE9FF4F087881B06A
:100390009946FF2805D0491C2D2804D000240023AD
:1003A00008E000230BE00124F9E703EB830300EBF3
:1003B0004303491C0878FF28F7D104B15B420020B1
:1003C0000090147801462D2C01D02B2C04D1521C06
:1003D0002D2C12D00024009400251678FF2E0ED06C
:1003E0000A24A0FB04C801FB0481002700FB0711BD
:1003F000521C16EB0C006941EFE70124EBE799442E
:1004000050EA01020ED00024AA4D2646DFF8A88249
:1004100000F054FC82468B46B9F1000009DAC9F1BC
:1004200000071BE001980021C0E9001105B0BDE8FC
:10043000F08F074612E0F80707D022462B463046D9
:10044000414600F0E4F90646884622462B4610460F
:10045000194600F0DCF904460D467F10002FEAD162
:10046000B9F1000F324643465046594602DA00F0D1
:1004700040FA01E000F0CBF9009A0AB181F00041A6
:10048000019AC2E90001D1E72DE9FF4F1F468DB067
:10049000D7E901464FF0FF382E2045464FF00009BE
:1004A0000B90B9696D1C0E988847396A8246884757
:1004B0000028F6D1BAF1FF3F0AD024F4D064002E10
:1004C00011DDBAF12B0F08D0BAF12D0F0BD102E0DC
:1004D000404611B0ABE744F48064B9696D1C0E98D6
:1004E00088478246761E6946600501D52D2000E0CA
:1004F0002B208DF8000001F1010B0DF1200809E01F
:10050000B9696D1C0E98884782460F9844F40074B0
:10051000761E0560002E02DDBAF1300FF0D00B9987
:100520008A453ED144F0800406E00F99681CA9F189
:10053000010944F400740860B9696D1C761E0E98B8
:10054000884782463028F0D02BE00B998A4505D1A8
:10055000200603D444F08004761E18E0504604F0D0
:10056000D9F808B30DF11301761E44F400748B45DD
:1005700008D2AAF130000BF8010B200607D5A9F12B
:10058000010003E0200602D409F101008146A00524
:1005900002D50F99681C0860B9696D1C0E988847D0
:1005A0008246002ED1DC53E0002E51DDBAF1650FFA
:1005B00002D0BAF1450F4BD1A00549D5B9696D1CE0
:1005C00024F44074761E0E9888478246002E0CDD77
:1005D0002B2804D0BAF12D0F07D144F48074B969E7
:1005E0006D1C0E9888478246761EE00501D52D21A8
:1005F00000E02B2108F8011BCDF82C8021E00DF143
:100600002901761E44F4007488450CD2AAF130000A
:1006100010F0FF0088F8000002D10B99884509D935
:1006200008F1010806E0E00501D5244801E042F2A6
:100630000F708146B9696D1C0E98884782460F98E5
:100640000560002E04DD504604F064F80028D6D181
:10065000F9690E988847FF208BF8000088F80000A1
:100660000020069007904B466A4608A906A8FFF7A7
:100670008BFEA00502D46FF001002AE714F0240FCE
:100680000AD0E00714D1DDE906123868031D3B608B
:100690000068C0E900120BE0DDE9060100F0E2F9B4
:1006A0000146E00704D13868021D3A600068016025
:1006B00028460EE7000024400000F03FF1D8FFFF7D
:1006C0002DE9FE4F804681EA0300C00F0C460090E2
:1006D00021F0004123F00045B8EB0200A94105D20A
:1006E0004046214690461C460B46024623F00040F9
:1006F000104347D0270DC7F30A00C3F30A510290F5
:10070000401A019040286BDAC3F3130040F4801BB9
:100710000098924620B10023D2EB030A63EB0B0B47
:1007200001985946C0F14002504600F0CDF9064606
:100730000D4650465946019A00F0E5F910EB0800C5
:100740006141002487EA115284EAE7731A4340D0DA
:10075000009A62B3019A012A4FEA075215DC001B86
:1007600061EB02014FF0004202EA0752CDE900427C
:10077000001C41F5801132462B4600F051FA03B0BF
:10078000BDE8F08F40462146F9E7001B61EB02010E
:10079000001C41F5801300185B412018A2F50017DA
:1007A00047EB030140EAD570B6196D4111E06D08C1
:1007B0004FEA360645EAC0754FEA0752001B61EB67
:1007C0000201001C41F5801149084FEA3000001970
:1007D000514132462B4603B0BDE8F04F00F011BA4C
:1007E0000098012240000023D0EB020263EBE0738B
:1007F000009821464FEAE074B8EB000061EB040179
:10080000E9E783F000435BE781F0004158E72DE919
:10081000FE4F81EA030404F0004421F000410094FB
:100820004FF0000B23F0004350EA01045ED052EA7F
:1008300003045BD0C3F30A54C1F30A552C44A4F259
:10084000F3340194A0FB0254C1F3130141F480116D
:10085000C3F3130343F4801301FB024400FB034E74
:10086000840A970A44EA815447EA8357A4FB07683D
:1008700002958D0A05FB07854FEA932C04FB0C5467
:100880002705029D4FEA065847EA1637B5EB0805DB
:100890006EEB070C870E920E47EA811742EA83122D
:1008A000A7FB0201B6EB0B0164EB00042B0D43EA3E
:1008B0000C335E1844EB1C50DA465146E7FB02014C
:1008C000C5F313044FEA0B3343EA14534FEA0432DF
:1008D000019C43EA0603A4F10C040294009CCDE9B8
:1008E00000B400F09DF903B0BDE8F08F0020014690
:1008F000F9E72DE9F04D81EA030404F0004B21F003
:10090000004514464FF0000A23F0004150EA05026A
:1009100020D054EA01021DD0C5F30A570246C5F3A0
:100920001303C1F31300C1F30A5640F4801543F4D6
:100930008013A7EB0608101BD64608F2FD3873EBB0
:10094000050002D308F1010801E092185B41B8F1FB
:10095000000F03DA00200146BDE8F08D00204FF4BF
:100960008011064684460EE0171B73EB050705D37E
:10097000121B63EB050306434CEA010C49084FEADE
:10098000300092185B4150EA0107EDD152EA0300B2
:1009900012D082EA040083EA0501084305D0101B47
:1009A000AB4106D20122002306E000224FF00043B3
:1009B00002E06FF0010253101AEB06004CEB0851F5
:1009C00010EB0A0041EB0B01BDE8F04D00F019B946
:1009D0000EB5C10F80EAE0700844CA07002140F25A
:1009E00033438DE80E000A460B4600F019F903B0B8
:1009F00000BD0EB540F2334102910021CDE9001156
:100A00000A460B4600F00CF903B000BDC1F30A52D0
:100A100010B5C1F3130140F2FF3341F480119A4243
:100A200001DA002010BD40F233439A42A2F2334271
:100A300003DC524200F057F810BD904010BD00F0AA
:100A4000004230F000400AD0C10D01F56071C0F3E2
:100A5000160042EA0151C2084007114370470020C6
:100A60000146704701F0004330B421F0004150EAE4
:100A7000010206D00A0DA2F56072C1F31301002A2B
:100A800002DC30BC00207047440F44EAC104C100BE
:100A9000E01830BC00EBC25000F07CB830B50B461B
:100AA000014600202022012409E021FA02F59D429E
:100AB00005D303FA02F5491B04FA02F52844151E72
:100AC000A2F10102F1DC30BD202A04DB203A00FA59
:100AD00002F1002070479140C2F1200320FA03F395
:100AE000194390407047202A04DB203A21FA02F093
:100AF0000021704721FA02F3D040C2F12002914058
:100B0000084319467047202A06DBCB17203A41FAE2
:100B100002F043EAE07306E041FA02F3D040C2F18A
:100B200020029140084319467047000002681144B2
:100B30001378016018467047D16004495161044937
:100B4000116200211161114600F00CB92D0B000853
:100B5000590D0008426842B1016811F8013B23B108
:100B6000521EC0E90012184670470121C160881E5C
:100B7000704742685AB1C368016843B983688B42C1
:100B800005D0491E521CC0E90012002070474FF0EA
:100B9000FF3070470029A8BF7047401C490008BFBC
:100BA00020F00100704710B4B0FA80FC00FA0CF09D
:100BB00050EA010404BF10BC704749B1CCF12004D5
:100BC00021FA04F411FA0CF118BF01212143084362
:100BD000A3EB0C01CB1D4FEA00614FEA102042BF8E
:100BE000002010BC704700EBC35010440029A4BF84
:100BF00010BC7047401C490008BF20F0010010BC29
:100C0000704710B5141E73F1000408DA401C41F15E
:100C1000000192185B411A4301D120F0010010BD80
:100C20002DE9F04D92469B4611B1B1FA81F202E0F6
:100C3000B0FA80F220329046FFF746FF04460F4696
:100C400040EA0A0041EA0B0153465A46084313D0D2
:100C5000114653EA010019D0C8F140025046FFF78F
:100C600042FF05460E46504659464246FFF72CFFC6
:100C7000084305D0012004E020463946BDE8F08D48
:100C80000020054346EAE0762C4337430A98630583
:100C9000E40AA0EB08000022FD0A44EA47540A30A7
:100CA00002D500200146E9E7010510196941DDE997
:100CB000084500196941BDE8F04DA2E70EB540F2C4
:100CC000334202920022CDE900221346FFF7A8FF2B
:100CD00003B000BDC1F30A52C1F3130140F2FF3368
:100CE00041F480119A4202DA00200146704740F236
:100CF00033439A42A2F2334202DC5242FFF7F3BE80
:100D0000FFF7E2BE30B5041E71F1000404DB4FF0C2
:100D10000044404264EB0101141E73F1000405DB42
:100D20001C464FF00043524263EB0403994208BF54
:100D3000904230BD064C074D06E0E06840F00103EC
:100D400094E8070098471034AC42F6D3FFF732FA24
:100D5000946E0008B46E0008C0B24FF4F05100F079
:100D600097B900002DE9F34F8BB04FF0000801F167
:100D70000C000C464FF0010B46460DF1080A01909D
:100D80006269012101989047051E2DD0252D2CD098
:100D9000216A8847C0B16269012101989047216AA0
:100DA00088470028F7D1411E62690198904700E00A
:100DB000761CA1690B988847216A88470028F7D1DB
:100DC000E1690B988847DBE7A1690B9888470746DC
:100DD000A84201D1761CD3E7E1690B9888477F1CB4
:100DE00002D1B8F1000F6FD046E1002762693D469D
:100DF0003946019890472A2804D162690121019857
:100E000090470125DFF8849262690121019890479B
:100E1000A0F130010A290AD24F45E5DC07EB870132
:100E200000EB4107303FDFD445F01005ECE7E90661
:100E300001D46FF000476C280AD04C2814D06828E1
:100E400015D06A280DD074281CD07A281AD01DE03D
:100E500062690121019890476C2802D045F0040591
:100E600014E045F002050DE045F020050AE0626956
:100E7000012101989047682802D045F0080505E057
:100E800045F400656269012101989047C4E9015762
:100E900065283DD019DC58287AD00CDC452837D09D
:100EA00004DC252826D0412831D131E046282FD036
:100EB00047282CD12CE05B2877D0612828D06328E4
:100EC0007CD0642823D15AE0D0E06F2848D008DCD9
:100ED00066281DD067281BD0692821D06E2816D11E
:100EE00027E0702845D0732868D0752847D0782827
:100EF0000DD14DE0A1690B988847054625283FF4A0
:100F000069AFE1690B9888476D1C3FF46AAFB3E0A5
:100F100023466A466FF001000B99FFF7B5FA9EE091
:100F200045F040006060A80723464FF0000236D429
:100F30003EE0E8077FF447AF2068011D21600068AC
:100F4000290501D506701BE7290701D5068017E79B
:100F5000A90703D5F117C0E9006111E706600FE7A3
:100F600045F040006060A80723464FF0080216D401
:100F70001EE040F60E0125EA0100606016E045F033
:100F800040006060A80723464FF00A0207D40FE034
:100F900045F040006060A80708D5234610226FF096
:100FA00001000B99AFF3008059E007E023461022BF
:100FB0006FF001000B99AFF3008050E04FF0000993
:100FC0004F464B46632802D05B2806D040E0E80637
:100FD00001D40120A06001273AE062690121019853
:100FE00090475E2805D14FF0010962694946019892
:100FF0009047216939B900210A46534643F8212018
:10100000491C0829FADBB0B3216969B9C11700EBA3
:10101000D16253110AEB830122F01F02821A0120D0
:101020000B68904003430B6062690121019890476F
:101030005D28E8D1B9F1000F09D00020514651F8E0
:101040002020D24341F82020401C0828F7DB02ABC7
:10105000224600976FF001000B99AFF30080002843
:101060000CDA401C08D1BBF1000F05D04FF0FF3067
:101070000DB0BDE8F08FFFE74046F9E7E90701D181
:1010800008F1010806444FF0000B79E6CCCCCC0CFB
:101090007F2801D9002208E0064A02EB5002C0076F
:1010A000127800D1120902F00F020120904008408E
:1010B00070470000306E0008464910B54A6822F4B7
:1010C00040324A604A6843681A434A6001684A6885
:1010D00022F480724A6001684A68036942EA032286
:1010E0004A6001684A6822F040724A6001684A68B2
:1010F00083681A434A6001688A6822F400628A6041
:1011000001688A68C3681A438A60816A6FF07062F6
:10111000D14201688A6822F070628A6001688A6838
:101120000CD0836A1A438A6001688A6822F04052B0
:101130008A6001688A68C36A1A4301E022F040525B
:101140008A6001688A6822F002028A6001688A68FF
:10115000037E42EA43028A6090F820100029016869
:101160004A680FD042F400624A6001684A6822F47B
:1011700060424A6001684A68174C436A04EB433393
:101180001A4301E022F400624A600168CA6A22F44C
:101190007002CA620168CA6A838B104C04EB035365
:1011A0001A43CA6201688A6822F400728A60016880
:1011B0008A6890F8303042EA43228A6001688A687F
:1011C00022F480628A6001688A68406942EA80206D
:1011D000886010BD0023014000E0FFFF0000F0FF29
:1011E000FEE70000014800F0F2BB00005C010020B7
:1011F000014800F0ECBB00005C010020014800F059
:10120000E6BB000084010020014800F0E0BB0000C4
:1012100084010020F0B587B000240C9E07462546C7
:1012200049B10420CDE90120CDE903538DF81450D4
:101230004FF6FE7506E002950092F5E7641CA4B235
:10124000AC420CD8384600F0ACFB0028F6D006AB18
:1012500032466946384600F045FA002800D00120A1
:1012600007B0F0BD014800F089BE00007C020020FC
:1012700001681823CAB2103AB2FBF3F2054B6FF3C0
:101280000901032A9B5CC36500D9091D81650846D5
:1012900070470000786D000810B5014600208B698A
:1012A0008A6A4FF0C07453B1B3F5005F15D072B1C4
:1012B000012A0CD0022A0AD0032A09D104E01AB16B
:1012C000012A06D0022A03D1C96AC90100D501202A
:1012D00010BDC96AA142FAD010BD002AF7D0012A78
:1012E000F2D0022AF3D0032AF3D010BD704772B6B1
:1012F000FEE7000078B50024009490F83C20012A15
:1013000019D0012280F83C200A6807230568092AC1
:1013100013D9EE680A3A02EB420293409E43EE6014
:101320000B788A680A3B03EB43039A400368DD6845
:101330002A43DA6010E0022078BD2E6902EB4202F7
:1013400093409E432E610B788A6803EB43039A40D7
:1013500003681D692A431A614A681F23072A13D2AA
:1013600005686E6B521E02EB820293409E436E63D1
:101370000A8893B20A79521E02EB820293400268F5
:10138000556B2B43536327E005680D2A12D22E6B51
:10139000D21F02EB820293409E432E630B790A8890
:1013A000DB1F92B203EB83039A4003681D6B2A4351
:1013B0001A6311E0EE6A0D3A02EB820293409E43FB
:1013C000EE620B790A880D3B92B203EB83039A40DD
:1013D0000368DD6A2A43DA621B4B0568194A9D429D
:1013E0000AD10D68122D07D1556825F40005556006
:1013F000556845F48005556005689D421DD1134D23
:101400000B68AB4201D0112B17D1536823F4800332
:101410005360536843F4000353600968A9420CD138
:101420000B490C4A0968B1FBF2F101EB810149005B
:1014300000E0491E00910029FBD180F83C400020CB
:1014400078BD000000230140002001401200001080
:101450002800002040420F00006C70470068C06CFC
:10146000704770B504004FF0000503D0206C0026D3
:1014700010B107E0012070BD204600F01DF8666441
:1014800084F83C60206CC00610D4206C20F4885096
:1014900040F0020020642046FFF70EFE6664206CD8
:1014A00020F0020040F00100206400E0012584F8F3
:1014B0003C60284670BD000010B586B0044614217B
:1014C0006846FEF739FF1149206888421CD1104850
:1014D0000021026842F480720260006800F48070AB
:1014E00005900B481438026842F00102026000685F
:1014F00000F001000590012000900320CDE90101DA
:101500006946044800F074FE06B010BD002001409A
:1015100044380240000002402DE9F04104460068D2
:101520000D4681684FF0000749050BD58068C0055E
:1015300008D5206C40F02000206484F83C70012025
:10154000BDE8F08100F07CFF064613E0681C11D076
:1015500025B100F075FF801BA8420BD920680068F8
:10156000800707D4206C40F00400206484F83C70AD
:101570000320E5E7206800688007E7D521686FF061
:1015800012000860206C40F40070206420688168BC
:1015900011F0405F13D1217E89B9C16A11F4700F37
:1015A00002D0806840050AD4206C20F4807020644A
:1015B000206CC00403D4206C40F0010020640020A3
:1015C000BEE7000018B50021009190F83C20012AE8
:1015D00007D0012280F83C2002689368DB0702D024
:1015E00011E0022018BD936843F0010393602E4A76
:1015F0002E4B1268B2FBF3F202EB420200E0521EE5
:101600000092002AFBD102689368DB0742D0036C8A
:1016100040F20164A34343F48073036453685B05A1
:1016200005D5036C23F4005343F480530364036C27
:10163000DB0404D5436C23F00603436400E04164FB
:1016400080F83C101A496FF0220313604968006863
:10165000CA06184906D0884224D1816811F0405F3B
:1016600013D01FE08842F8D0134A904203D1D1F83A
:101670000423D206F1D0114A904213D1D1F80413B9
:1016800001F01F011029E8D30CE0816841F080418E
:10169000816007E0016C41F010010164416C41F090
:1016A00001014164002018BD2800002040420F00C5
:1016B00000230140002001400021014000220140A0
:1016C00090F82020012A07D0022A05D0416A41F46F
:1016D0008021416201207047006842690A434261EB
:1016E00000207047F0B590F820500468A468012DE0
:1016F00005D0022D03D0416A41F4802153E014F05B
:10170000406F01D1E5004BD5C4F30164022C03D92D
:10171000416A41F4000146E00125A5401D608D6845
:101720004FF4C0739DB1CE6835434E6845EAC60597
:10173000066803EB0417F5514FF4C275076805EB13
:1017400004150E697E51097D012905D009E00E8836
:10175000CD6845EA4655EBE701684E5946F4807678
:101760004E511179D2F805504FF4C67641EA05255D
:10177000016806EB04168D511178D2F801204FF460
:10178000C47541EA0221026805EB04155151006855
:1017900003EB0411425842F0010242500020F0BD18
:1017A000416A41F4001141620120F0BD10B590F88A
:1017B0002020012A07D0022A05D0416A41F4802165
:1017C0004162012010BD3B48D0F8002242F00102E6
:1017D000C0F80022D0F8002222F47C52C0F8002287
:1017E000D0F800224B6A42EA0322C0F800220A7DA8
:1017F00002F01F0301229A40D0F81C329343C0F834
:101800001C32CB69B3B9D0F80C329343C0F80C3218
:101810008C894B6864F31F434C6900EBC404C4F823
:1018200040320C890B6864F31F434C6900EBC4041D
:10183000C4F84432CB69012B16D1D0F80C321343D3
:10184000C0F80C320C884B6864F31F434C6900EB02
:10185000C404C4F840320C89CB6864F31F434C695C
:1018600000EBC404C4F844328B69002BD0F8043276
:101870000ED01343C0F804320B69002BD0F8143299
:1018800008D01343C0F81432096A012904D008E0D3
:101890009343EFE79343F5E7D0F81C121143C0F8E8
:1018A0001C12D0F8001221F00101C0F80012002033
:1018B00010BD000000640040704730B590F8204033
:1018C000012C05D0022C03D0416A41F480215DE057
:1018D0000468002955D02469A40754D04FF4D87463
:1018E000056804EB01142D5915F004059560056891
:1018F0002D594ED0ED08556005682C5904F00204AE
:10190000D4604FF4DA74056804EB01142D5905F026
:101910000F05156105682D59C5F307259561056803
:101920002C59240C54614FF4DC72046802EB011250
:10193000A4581C700468A458240A5C700468A45855
:10194000240C9C700468A258120EDA704FF4DE72F8
:10195000046802EB0112A4581C710468A458240AFC
:101960005C710468A458240C9C710468A258120E7F
:10197000DA71006881B1016941F020010161002044
:1019800030BDE468A8E7416A41F4001141620120DA
:1019900030BD6D0D1560AFE7C16841F02001C16039
:1019A000EDE70246002092F82010012901D002291B
:1019B0000CD111688A68520100D501208A68120191
:1019C00000D5401C8968C90000D5401C70472DE92E
:1019D000F05F0546006800244669D0F804908768E7
:1019E000D0F80CB0D0F810A0D0F81880F10748D08B
:1019F000F90714D001218160B80703D5284600F00B
:101A00005CFA0CE0780702D54FF4006407E0380771
:101A100002D54FF4805402E0284600F04DFAF80554
:101A200016D529684FF480708860B80503D528461C
:101A300000F045FA0CE0780502D544F4005407E0C4
:101A4000380502D544F4804402E0284600F036FA16
:101A5000F80316D529684FF480308860B80303D5A1
:101A6000284600F02EFA0CE0780302D544F4004436
:101A700007E0380302D544F4803402E0284600F041
:101A80001FFA300707D55FEACB6004D5296810201C
:101A900044F40074C86070074FF0080707D55FEA88
:101AA0000B7004D52868C760284600F0A9F9B00774
:101AB00006D52868C068800702D0284600F0A2F941
:101AC000700607D55FEACA6004D52968102044F47F
:101AD00080640861B00607D55FEA0A7004D52868FB
:101AE0000761284600F0B8F9F00606D528680069B5
:101AF000800702D0284600F0B0F9B00308D55FEAAD
:101B0000C96005D5296810204860284600F0A6F96C
:101B1000F00307D55FEA097004D5286847602846B6
:101B200000F0D0F9300446D55FEA497040D5F005A1
:101B300004D55FEAC87001D044F00104B00504D5B3
:101B40005FEA887001D544F00204700504D55FEAAD
:101B5000487001D544F00404300529D518F0700F01
:101B600026D008F07000402815D006DC102809D0D7
:101B700020280AD0302816D10AE050280ED060283C
:101B800011D10EE044F008040DE044F010040AE026
:101B900044F0200407E044F0400404E044F08004F2
:101BA00001E044F480742868816921F0700181614A
:101BB000296804204860002C05D0686A20436862C8
:101BC0002846FFF779FEBDE8F09F70B5040003D00A
:101BD00094F8200010B104E0012070BD204600F010
:101BE00081F82068016841F00101016000F028FCE3
:101BF0000546052604E000F023FC401B0A2811D806
:101C000020684068C007F6D02068016821F0020112
:101C1000016000F015FC05460BE000F011FC401BD4
:101C20000A2806D9606A40F40030606284F82060B7
:101C3000D2E7206840688007EFD4207E0128206822
:101C400001683DD021F080010160607E012820689C
:101C5000016838D021F040010160A07E0128206891
:101C6000016833D021F020010160E07E0128206866
:101C700001682ED041F010010160207F012820680A
:101C8000016829D021F008010160607F01282068E7
:101C9000016824D021F004010160D4E90201084365
:101CA000D4E90412114308436168491E08432168BE
:101CB000C86100206062012084F82000002070BD0F
:101CC00041F08001C0E741F04001C5E741F020014B
:101CD000CAE721F01001CFE741F00801D4E741F055
:101CE0000401D9E7F0B587B0044614216846FEF731
:101CF00023FB3E4B3E48DFF8F0E01968D4F800C003
:101D00003B4A03250226092710300024491CF445CC
:101D10002AD11960012907D1016841F000710160E1
:101D2000006800F000700590106840F00800106036
:101D30001068CDE9005600F00800CDE9047069464E
:101D40002C48CDE9024500F053FA0022052113206A
:101D500000F014FC132000F003FC002205211420E5
:101D600000F00CFC14203BE0DFF88CE0F44539D1A6
:101D7000D0F800C04CF0806CC0F800C0D0F800C0B3
:101D800001290CF0806CCDF814C0196007D10168EE
:101D900041F000710160006800F00070059010686B
:101DA00040F002001060106802AB00F002000590E5
:101DB0004FF44050CDE9000683E8B00069460F4873
:101DC00000F016FA002205213F2000F0D7FB3F204B
:101DD00000F0C6FB00220521402000F0CFFB402090
:101DE00000F0BEFB07B0F0BD00640040180000200A
:101DF00030380240000C02400068004000040240FD
:101E00007047000010B58AB0044607AB6A4600214F
:101E1000FFF753FD0D49206888420098A0F2012089
:101E200006D107280FD8C0B200EB4000084905E0F2
:101E3000072808D8C0B2074900EB400001EB0010AA
:101E400007A903F0C5F80AB010BD00000064004007
:101E5000F84B0020784D0020704770477047000015
:101E600070B5044690F82000012804D0606A40F460
:101E70000020606218E0022084F8200020680168D9
:101E800021F00101016000F0DBFA05460EE000BF21
:101E900000F0D6FA401B0A2808D9606A40F40030E6
:101EA0006062052084F82000012070BD2068406831
:101EB000C007EDD1606270BD7047704770477047D2
:101EC0007047704770472DE9F0410446876D00F078
:101ED000B7FA064694F835000025022806D080207F
:101EE000606584F834500120BDE8F0812068016805
:101EF00021F0160101602068416921F080014161F3
:101F0000206C08B9A06C20B12068016821F008019C
:101F100001602068016821F0010101600CE000F01F
:101F20008FFA801B052807D920206065032084F8DC
:101F3000350084F83450D7E720680068C007EED138
:101F400094F85C103F208840B860012084F8350088
:101F500084F834500020C7E790F83510022903D0E8
:101F60008021416501207047052180F83510006807
:101F7000016821F001010160002070472DE9F8435C
:101F800004464FF00009CDF8009063484FF4165115
:101F9000A56D0068B0FBF1F72E6894F85C1008207E
:101FA00000FA01F131420FD021680A6852070BD5BF
:101FB0000A6822F004020A6094F85C108840A86065
:101FC000606D40F00100606594F85C104FF001080E
:101FD00008FA01F0304208D021684969090604D5A1
:101FE000A860606D40F00200606594F85C10042009
:101FF0008840304208D021680968890704D5A86064
:10200000606D40F00400606594F85C10102088401A
:10201000304218D021680968090714D5A8602068E3
:102020000168490304D50068000308D5A16C07E0E6
:102030000168C90503D4016821F008010160216C21
:1020400009B12046884794F85C102020884030422F
:1020500031D021680968C9062DD5A86094F83500EB
:1020600005282068016806D0490347D500680003A9
:102070001DD4616C1CE021F01601016020684169EB
:1020800021F080014161206C08B9A06C20B120686A
:10209000016821F00801016094F85C103F2088403D
:1020A000A86084F8358084F83490216D1FE0E16BDE
:1020B00009B120468847606D00282BD0606DC007AD
:1020C00014D0052084F835002068016821F0010152
:1020D00001600098401C0090B84203D82068006856
:1020E000C007F6D184F8358084F83490E16C00297B
:1020F00010D001B02046BDE8F04308470168C9058B
:10210000D5D4016821F01001016084F8358084F88D
:102110003490CCE7BDE8F883280000202DE9F04199
:10212000044600F08DF906465CB1022084F83500C3
:10213000002584F834502068016821F00101016015
:102140000DE00120BDE8F08100F07AF9801B052840
:1021500005D920206065032084F83500F2E7206867
:102160000068C007F0D12268116820480140D4E916
:1021700001031843D4E90336334318436369184312
:10218000A3691843E3691843236A18430843616A43
:10219000042903D1D4E90B131943084310602068C4
:1021A0004069666A20F0070130460E430127042883
:1021B0000CD1A06A0643E06A40B12046FFF76CF8F4
:1021C00020B14020606584F83570BAE72068466128
:1021D0002046FFF74DF894F85C203F219140816044
:1021E000656584F835700020ACE700003F8010F092
:1021F0002DE9F84FDFF8F8A10022012403254FF064
:102200000F090AF1040BAAF1040E00BF0B6804FACF
:1022100002F63340B34270D10F7907F00307012F64
:1022200001D0022F16D187684FEA420805FA08FC50
:1022300027EA0C07D1F80CC00CFA08FC4CEA070C92
:10224000C0F808C04768B7430E79C6F30016964039
:102250003E4346600E79F643B6070AD0C7684FEA98
:10226000420C05FA0CF6B7438E6806FA0CF63E43AC
:10227000C6600E7906F00306022E10D1D60800EBD8
:102280008608D8F8206057074FEAD76C09FA0CF790
:10229000BE430F6907FA0CF73743C8F82070066889
:1022A0004FEA420C05FA0CF7BE430F7907F003071B
:1022B00007FA0CF7374307604E6816F4403F1CD00E
:1022C0004C4E376847F480473760366822F0030782
:1022D00006F480460096484E07EB060CDCF80868CA
:1022E00097073F0F09FA07F826EA0806DFF80C817E
:1022F000404503D14FF0000841E072E0DFF8008173
:10230000404502D14FF0010839E0DFF8F880404540
:1023100002D14FF0020832E0DFF8EC80404502D1F4
:102320004FF003082BE0DFF8E480404502D14FF086
:10233000040824E0DFF8D880404502D14FF00508BA
:102340001DE0DFF8D080404502D14FF0060816E0CE
:10235000DFF8C480404502D14FF007080FE0DFF8F6
:10236000BC80404502D14FF0080808E0DFF8B0809B
:10237000404502D14FF0090801E04FF00A0808FA81
:1023800007F848EA0608CCF80888DAF800605746EB
:10239000D1F804C09E435FEACC2C00D51E433E60BA
:1023A000DBF800605F46D1F804C09E435FEA8C2CE6
:1023B00000D51E433E60DEF800607746D1F804C0C9
:1023C0009E435FEA8C3C00D51E433E60084F083FA9
:1023D0003E68D1F804C09E435FEACC3C00D51E4362
:1023E0003E60521C102AFFF411AFBDE8F88F0000C8
:1023F000083C0140443802400030014000000240E7
:102400000004024000080240000C0240001002409C
:102410000014024000180240001C0240002002404C
:1024200000240240426921EA02030A4043EA0241D1
:10243000816170470AB1816170470904FBE70000C0
:1024400001488068704700001C0000200248816835
:1024500002781144816070471C0000200B4810B5C1
:10246000016841F400710160016841F4806101601C
:10247000016841F480710160032000F09FF80F2093
:1024800000F006F800F050F8002010BD003C0240BB
:1024900030B505461F4887B00024016841F010019F
:1024A0000160006806A900F01000009001A800F08B
:1024B00069F90498A8B100F085F940001649174A57
:1024C000B0FBF1F11648491E026040F2E732C0E964
:1024D0000324C0E90114846100F0C6FB040003D0AA
:1024E00015E000F06FF9E9E70D4800F0EBFB0400A0
:1024F0000DD1362000F034F8102D07D200222946E5
:10250000362000F03BF80748056000E0012407B0E2
:10251000204630BD4038024040420F0000100040CD
:10252000DC020020200000200C4882B0016841F449
:1025300080410160006800F4804000900748001F5F
:10254000016841F0805101600068002200F0805075
:1025500000900F21901E02B000F010B844380240E5
:10256000002809DB00F01F02012191404009800092
:1025700000F1E020C0F8001170470000F0B40E4BED
:102580001B680C46C3F30223C3F10705042D00D9D1
:102590000425191D072901D2002300E0DB1E0126B6
:1025A00006FA05F1491E214099409E40761E1640CC
:1025B0003143F0BC01F0C8BD0CED00E0064900F06D
:1025C000070208684FF6FF03184040EA0220034A5A
:1025D00010430860704700000CED00E00000FA05B1
:1025E0002DE9F8431748016841F080510160006807
:1025F000154F00F08050012600903E64FFF720FF49
:1026000005464FF47A78114C05E000BFFFF718FF3C
:10261000401B40450DD86068C003F7D57E64FFF7C6
:102620000FFF0546464607E0FFF70AFF401BB04292
:1026300002D90320BDE8F88360688003F4D5002048
:10264000F8E700004038024000000E4200700040F1
:102650002DE9F0470E46050065D0DFF81481D8F863
:102660000000F7B200F00F00B04207D288F8007007
:10267000D8F8000000F00F00B04254D128683D4C5B
:10268000810712D5400703D5206840F4E050206050
:102690002878000703D5206840F460402060206857
:1026A000A96820F0F000084320602878C0072DD0EA
:1026B000304968680839012812D0022813D003284D
:1026C00011D00968890700292DDA216821F003015A
:1026D00001432160FFF7B4FE814641F2883A0EE0E3
:1026E00009688903EFE709688901ECE7FFF7A8FEAD
:1026F000A0EB0901514502D90320BDE8F08720680D
:10270000696800F00C00B0EB810FEFD1D8F8001031
:10271000404601F00F01B14207D90770006800F090
:102720000F00B04201D00120E7E72878400705D527
:102730002068E96820F4E05008432060287800070A
:1027400006D52068296920F4604040EAC100206075
:1027500000F058F82168084AC1F30311515CC840E1
:102760000649086006480068FFF792FE0020C4E7AB
:10277000003C024008380240806D0008280000201C
:10278000200000200F2202600C4A136803F00303AC
:102790004360136803F0F0038360136803F4E053AD
:1027A000C36012684FF4E05303EAD20202610448A6
:1027B000006800F00F000860704700000838024011
:1027C000003C02400448054900680968044AC1F316
:1027D0008221515CC8407047280000200838024020
:1027E000906D00080448054900680968044AC1F36F
:1027F0004231515CC8407047280000200838024030
:10280000906D0008154810B5006810F00C021448CF
:1028100013D01449042A0FD0082A0ED10F4C241FBC
:102820002268236802F03F025B0207D52068C0F3EC
:102830008810A0FB010106E0084610BD2168C1F325
:102840008811A1FB00010023FDF72CFD2168C1F3D5
:102850000141491C4900B0FBF1F010BD08380240AD
:102860000024F40040787D012DE9F84F04006ED07B
:102870002078DFF84C93C007A9F104054AD009F18C
:1028800004000168C1F38101012908D00068C0F388
:10289000810002280AD1D9F80000400206D5286834
:1028A000800337D560680028E1D033E06068B0F578
:1028B000803F10D0B0F5A02F286810D020F48030D1
:1028C0002860286820F4802028606068A8B1FFF79D
:1028D000B7FD06460DE0286840F48030F4E740F488
:1028E00080202860F7E700BFFFF7AAFD801B64285F
:1028F00073D828688003F7D50CE0FFF7A1FD0646E2
:1029000005E000BFFFF79CFD801B6428F0D8286815
:102910008003F7D42078DFF8AC8280074FF0000AFC
:102920003ED5A748001D016811F00C0F08D00068C3
:10293000C0F3810002280BD1D9F80000400207D46F
:102940002868800716D5E068012800D112E033E13D
:10295000E068B8B10120C8F80000FFF771FD064635
:1029600005E000BFFFF76CFD801B0228C0D8286877
:102970008007F7D52868216920F0F80040EAC100F7
:1029800028600DE0C8F800A0FFF75AFD064604E0F5
:10299000FFF756FD801B02281FD828688007F7D450
:1029A0002078000722D5864F87486169703771B15A
:1029B00001210160FFF744FD064604E0FFF740FDFA
:1029C000801B022809D838688007F7D50EE0C0F8C8
:1029D00000A0FFF735FD064605E082E0FFF730FD79
:1029E000801B02287DD838688007F7D420784007FC
:1029F00068D5DFF8CCB100270BF13C0BDBF8000009
:102A0000C0000BD4DBF8001041F08051CBF800106F
:102A1000DBF80000012700F0805000906B4E30681A
:102A2000C00510D4306840F480703060FFF708FDB6
:102A3000009005E0FFF704FD0099401A022850D8E5
:102A40003068C005F6D55E4EA0686C3601280FD000
:102A50000528306810D020F001003060306820F088
:102A600004003060A068B8B1FFF7EAFC00900FE006
:102A7000306840F00100F4E740F004003060F7E710
:102A8000FFF7DEFC0099411A41F28830814266D896
:102A900030688007F4D50EE0FFF7D2FC009007E025
:102AA000FFF7CEFC0099411A41F28830814256D896
:102AB00030688007F4D42FB1DBF8001021F080518A
:102AC000CBF80010A069C8B33D49091D0968C1F3DE
:102AD000810102294AD00228504607D0C8F8600078
:102AE00000E03CE0FFF7ACFC04463BE04746C8F89A
:102AF0006000FFF7A5FC064605E000BFFFF7A0FC5D
:102B0000801B02282BD828688001F7D4D4E907015C
:102B10000843A16A2E4A490802EB0141626A41EA70
:102B20008211084394F82C1040EA0161C9F80010A2
:102B300001203866FFF784FC044606E03EE000BF53
:102B4000FFF77EFC001B022809D828688001F7D512
:102B500034E000BFFFF774FC001B022802D90320F9
:102B6000BDE8F88F28688001F4D427E00128F7D069
:102B7000D9F80000E26900F4800191421CD1226A78
:102B800000F03F01914217D147F6C071626A0140DF
:102B9000B1EB821F10D1A26A4FF0FF3300F4403135
:102BA00003EB5202B1EB024F06D194F82C1000F067
:102BB0007060B0EB016F01D00120D1E70020CFE7BA
:102BC0000438024000004742800E47420070004037
:102BD0000000FFFF7047704770B590F83C20012A55
:102BE00032D0012480F83C40022280F83D20036866
:102BF0005A689D6822F070060A6832435A60134B87
:102C000002689A4214D0B2F1804F11D0104B9A4210
:102C10000ED0104B9A420BD00F4B9A4208D00F4B5C
:102C20009A4205D00E4B9A4202D00E4B9A4204D1E2
:102C3000496825F080031943916080F83D400021E8
:102C400080F83C10084670BD022070BD00000140B5
:102C50000004004000080040000C00400004014057
:102C6000004001400018004010B5040003D094F863
:102C70003D0010B107E0012010BD002084F83C00A9
:102C8000204600F01EF8022084F83D00211D206837
:102C900000F02CFF012084F8460084F83E0084F800
:102CA0003F0084F8400084F8410084F8420084F832
:102CB000430084F8440084F8450084F83D00002077
:102CC00010BD704790F83D10012901D001207047D8
:102CD000022180F83D100168CA6842F00102CA6012
:102CE00000681149884214D0B0F1804F11D00F49CB
:102CF00088420ED00E4988420BD00E49884208D037
:102D00000D49884205D00D49884202D00C498842BD
:102D100004D1816801F00701062903D0016841F060
:102D200001010160002070470000014000040040E4
:102D300000080040000C0040000401400040014039
:102D400000180040704770B50446006801694FF0F4
:102D50000005C943890715D4C168C943890711D43F
:102D6000E91E0161012020772068806980072046E4
:102D700002D0FFF7E7FF04E000F0C0F8204600F0C3
:102D800063F9257720680169C943490717D4C168E9
:102D9000C943490713D46FF0040101610220207771
:102DA0002068806910F4407F204602D0FFF7CAFFF8
:102DB00004E000F0A3F8204600F046F925772068EB
:102DC0000169C943090716D4C168C943090712D468
:102DD0006FF008010161042020772068C069800736
:102DE000204602D0FFF7AEFF04E000F087F820464F
:102DF00000F02AF9257720680169C943C90617D46C
:102E0000C168C943C90613D46FF0100101610820DD
:102E100020772068C06910F4407F204602D0FFF779
:102E200091FF04E000F06AF8204600F00DF92577E4
:102E300020680169C943C90708D1C168C943C907E6
:102E400004D1891E0161204600F064F920680169FF
:102E5000C943090609D4C168C943090605D46FF0FE
:102E6000800101612046FFF7B5FE20680169C94372
:102E7000490609D4C168C943490605D46FF0400129
:102E80000161204600F050F920680169C9438906B4
:102E90000BD4C168C943890607D46FF020010161D2
:102EA0002046BDE87040FFF796BE70BD10B586B0F5
:102EB000044614216846FDF73FFA2068B0F1804FC0
:102EC00015D10C480021026842F00102026000683E
:102ED00000F001000590062000900220CDE90101DC
:102EE0000120CDE9031069460348FFF781F906B0D8
:102EF00010BD00003038024000000240704770B53D
:102F0000044690F83C0000260D4601280FD0012011
:102F100084F83C006AB1042A1DD0082A2FD00C2A5C
:102F20003FD00126002084F83C00304670BD0220CE
:102F300070BD206800F04CFE2068816941F00801F6
:102F400081612068816921F00401816120688169C3
:102F50002A69114311E0206800F06AFE2068816947
:102F600041F4006181612068816921F4806181619F
:102F7000206881692A6941EA02218161D2E72068DB
:102F800000F08CFE2068C16941F00801C161206831
:102F9000C16921F00401C1612068C1692A69114336
:102FA00011E0206800F0AEFE2068C16941F40061C4
:102FB000C1612068C16921F48061C1612068C16973
:102FC0002A6941EA0221C161ACE710B5040003D0CF
:102FD00094F83D0010B107E0012010BD002084F8F6
:102FE0003C00204600F01EF8022084F83D00211D20
:102FF000206800F07BFD012084F8460084F83E0044
:1030000084F83F0084F8400084F8410084F84200CE
:1030100084F8430084F8440084F8450084F83D00B7
:10302000002010BD08B50068B0F1804F08D10548F8
:10303000016841F001010160006800F001000090AA
:1030400008BD0000403802407047000010B504463B
:10305000022249B104290ED0082913D094F8410066
:10306000012816D0012010BD94F83E000128F9D1A6
:1030700084F83E200FE094F83F000128F2D184F854
:103080003F2008E094F840000128EBD184F840206C
:1030900001E084F841200122206800F08BFD1649F0
:1030A0002068164A884201D0904203D1436C43F411
:1030B000004343642068884213D0B0F1804F10D0A1
:1030C0000F4988420DD00F4988420AD00E498842E4
:1030D00007D0904205D00D49884202D00C49884261
:1030E00004D1816801F00701062903D0016841F08D
:1030F00001010160002010BD0000014000040140FA
:103100000004004000080040000C00400040014066
:103110000018004000680349884201D1FFF796B9C2
:103120007047000000100040704770477047000073
:10313000F8B5016804460868CA684B6910F00F0FBB
:103140004FF0000559D003F0010602F490773743A1
:1031500065D0C10705D0D10503D5216C41F001012F
:103160002164410705D5D90703D0216C41F0020144
:103170002164810705D5D90703D0216C41F00401F2
:103180002164010707D502F02001314303D0216CEF
:1031900041F008012164216C00293AD0800604D551
:1031A000900602D5204600F032FE20684069216C6E
:1031B000C0F38010090700D460B3204600F000FE81
:1031C00020684069400621D52068143050E8001F6F
:1031D00021F0400140E80012002AF5D1A06BA8B10F
:1031E0006C490165A06BFEF7B7FE002811D0A06BFB
:1031F000016D01B0BDE8F040084783060FD5930686
:103200000DD52046BDE8F84000F001BE2046FFF78E
:103210008DFFF8BD2046FFF789FF2564F8BD266BBA
:103220002023012E79D1C60677D5D60675D5086834
:10323000486800904869400640D5A16B086840681E
:103240000004000CEAD0A28D8242E7D9E085C8696B
:10325000B0F5807F2DD020680C3050E8001F21F49D
:10326000807140E80012002AF5D12068143050E83F
:10327000001F21F0010140E80012002AF5D120686A
:10328000143050E8001F21F0400140E80012002AED
:10329000F5D184F83E30256320680C3050E8001FDB
:1032A00021F0100140E80012002AF5D1A06BFEF7D2
:1032B0000AFEA08DE18D401A81B229E0A08DE18D3A
:1032C000401A81B2E08D0028A8D00029A6D020683D
:1032D0000C3050E8002F22F4907240E80026002EB7
:1032E000F5D12068143050E8002F22F0010240E8A8
:1032F0000026002EF5D184F83E30256320680C307E
:1033000050E8002F22F0100240E80023002BF5D1F6
:103310002046FFF70AFFF8BDFFE705062BD5150687
:1033200029D594F83D002128F5D1A068B0F5805F3B
:1033300001D12069B0B1206A411C21622168007866
:103340004860E08C401E0004000CE084E3D120685B
:10335000C16821F08001C1602068C16841F040016E
:10336000C160D8E7206A0088C0F308004860206A7E
:10337000801C2062E5E74006CDD55006CBD5CA6853
:10338000204622F04002CA6084F83D3000F06DF91A
:10339000C1E70000B13D000870B5040004D094F806
:1033A0003D00002510B106E0012070BD84F83C50BE
:1033B000204600F023F8242084F83D002068C168EE
:1033C00021F40051C160204600F082FD20680169AF
:1033D00021F4904101612068416921F02A01416195
:1033E0002068C16841F40051C1602564202084F840
:1033F0003D0084F83E00002070BD0000F0B587B0AD
:10340000064614216846FCF797FF334F30680025C5
:103410003249022203230724B8423DD12F481430F9
:10342000076847F010070760006800F0100005907B
:10343000086840F0020008600868694600F0020071
:103440000590C0208DE82500CDE903342448FEF71F
:10345000CFFE254C234820604FF00060C4E90105F1
:103460004014C4E9035080106561C4E906500002AD
:10347000C4E908052046FEF751FE08B1FDF737FF05
:10348000B463002205212520A663FFF777F82520E5
:10349000FFF766F807B0F0BD144EB042FAD10F48FE
:1034A0001030066846F480260660006800F480202C
:1034B0000590086840F0080008600868694600F058
:1034C000080005904FF440708DE82500CDE90334E5
:1034D0000748FEF78DFEDDE700100140303802405E
:1034E00000040240406402407C020020004800408A
:1034F000000C02402DE9F84F044690F83E009A4631
:1035000016460D46202853D1FDB1F6B194F83C0083
:1035100001284DD0012084F83C0000272764222098
:1035200084F83E002763FEF78BFFA6858146E6857B
:10353000A0684FF48058404501D1206940B12E4623
:103540005FF0000584F83C7027E00120BDE8F88FAB
:103550000026F7E74B46002220212046CDF800A0A8
:1035600000F03CFD08B10320F0E726B1A06840451B
:103570001BD038B108E020684068C0F3080025F887
:10358000020B07E0206980B12068406800F07F00EE
:1035900006F8010BE08D401EE085E08D0028D9D1B2
:1035A000202084F83E000020D0E720684068EFE744
:1035B0000220CBE7704700002DE9F843044690F85D
:1035C0003D001F4616460D4620284CD1C5B1BEB160
:1035D00094F83C00012846D0012084F83C004FF0CC
:1035E0000008C4F84080212084F83D00FEF728FF41
:1035F000A6848146E684A068B0F5805F03D004E02D
:103600000120BDE8F883206928B12E465FF000054F
:1036100084F83C800EE00026FAE78021204600F086
:10362000DDFCA0B9AEB116F8010B21684860E08C52
:10363000401EE084E08C4B464FF0000200970028CB
:10364000EBD14FF04001204600F0C8FC30B1032020
:10365000D7E735F8020BC0F30800E6E7202084F82E
:103660003D000020CDE70220CBE77047FEE70000D9
:103670007FB50024154800940194029412490394E4
:1036800001604FF48031C0E901140461047680F8D0
:1036900020400F49C0E90A140125C561C46080F8C3
:1036A00030404561FDF7DDFE08B1FDF720FECDE9B4
:1036B0000045694605480294FDF71CFE002801D02C
:1036C000FDF715FE7FBD0000002001401401002021
:1036D0000100000F0F4810B50D4901600521416040
:1036E00000214FF400328160C0E9031252014261AF
:1036F000017641768176C17601774177FEF765FAEA
:10370000002803D0BDE81040FDF7F1BD10BD00005A
:10371000006400405C0100200F4810B50D490160B5
:103720000521416000214FF400328160C0E903129D
:10373000520142610176012242768176C17601779B
:103740004177FEF742FA002803D0BDE81040FDF7AC
:10375000CEBD10BD0068004084010020094808B5B6
:10376000016841F4800101600068002200F48000DB
:10377000009005213A20FEF701FFBDE808403A20FD
:10378000FEF7EEBE3038024010B50B4A00210B4860
:1037900001F0C6FC0A4C084A0021E06024320948C6
:1037A00001F0BEFC044A206148320021064801F0C5
:1037B000B7FC606110BD00000C6D00088D39000879
:1037C00000000020DD390008F539000870B586B02A
:1037D00014216846FCF7B0FD1E480025016841F041
:1037E00001010160016801F001010591016841F0EA
:1037F00002010160016801F002010591016841F0D8
:1038000008010160016801F008010591016841F0BB
:1038100080010160016801F080010591016841F0BB
:103820002001016000680C4E00F020004FF480443D
:103830000590002221463046FEF7FCFD0120CDE92F
:1038400000400220CDE9020569463046FEF7D0FC73
:1038500006B070BD303802400014024010B58AB086
:10386000002407941C2168460894FCF765FD1A485B
:103870004FF0804101604FF46171C0E901144FF4D1
:10388000FA61C0E903148461FFF79FFB08B1FDF7FB
:103890002EFD079407A910480894FFF79DF908B179
:1038A000FDF725FD6020CDE900040294042269465D
:1038B00009480494FFF723FB08B1FDF718FD08221F
:1038C00069460548FFF71BFB08B1FDF710FD0248EC
:1038D000FFF7ECFA0AB010BDAC0100200C4810B59F
:1038E0000A4901604FF4E1314160002181600C22FE
:1038F000C160C0E904128161C161FFF74DFD00287C
:1039000003D0BDE81040FDF7F2BC10BD001001402F
:10391000F40100200C4810B50A4901604FF4E13170
:103920004160002181600C22C160C0E90412816104
:10393000C161FFF731FD002803D0BDE81040FDF75D
:10394000D6BC10BD0048004038020020FEE7FEE76C
:1039500030B40B4C44660B4CDFED0B1A8466C0EDA3
:103960000E1AC0ED0D1AC0ED0F1AC0ED101AC0ED01
:10397000111AC0ED121AC0ED131A30BC01F0F8BCD8
:10398000715300087F530008000000000E4801F04A
:1039900060FB0E4801F072FA00F064FB01F094FA4B
:1039A0000A2001F081FB0A4D4FF48044094A0A487D
:1039B000111F00F0CFF921462846FEF733FD6420A1
:1039C00001F072FBF2E700005C010020840100209E
:1039D0000014024008000020B00000200349044801
:1039E00001F0C8FA0A2001F05FFBF7E700000020B1
:1039F000140100202DED028B9FED058AB0EE480AE0
:103A0000F0EE400A02F00CF90A2001F04DFBF5E758
:103A10000000B44310B54FF0E020006902F05EFFF3
:103A2000012803D0BDE8104002F08CBC10BD00009E
:103A300030B593B030216846FCF77EFC14210CA809
:103A4000FCF77AFC20480025016841F080510160B4
:103A5000006800F0805011901C48016841F440411A
:103A600001600068022400F440401190012003909E
:103A700010200490009406940820CDE90750B4204B
:103A8000CDE9090404200B906846FEF7EDFE08B16D
:103A900072B6FEE7FEF7A4FD08B172B6FEE70CA908
:103AA0000F2081E831004FF4A0500F904FF4805068
:103AB000109005210CA8FEF7CBFD002801D072B6AE
:103AC000FEE713B030BD00004038024000700040F7
:103AD0000248016841F470010160704788ED00E020
:103AE0000148FFF730B90000DC020020F0B50268A1
:103AF000254C264D264E274F274B4FF0804CA04299
:103B000009D0604507D0A84205D0B04203D0B842E2
:103B100001D0984204D122F0700E4A6842EA0E02A7
:103B2000A0421BD0604519D0A84217D0B04215D092
:103B3000B84213D0984211D0184DA8420ED0184D5B
:103B4000A8420BD0174DA84208D0174DA84205D067
:103B5000164DA84202D0164DA84203D122F440755A
:103B6000CA682A434D6922F080022A4302608A68AB
:103B7000C2620A688262A04201D0984201D10969FA
:103B8000016301214161F0BD0000014000040040DB
:103B900000080040000C00400004014000400140CB
:103BA000004401400048014000180040001C004053
:103BB0000020004010B501F01F030121046A994064
:103BC0008C430462016A9A401143016210BD0000F7
:103BD000F0B5026A22F001020262036A4268846957
:103BE000124E24F073050C682C4323F002058B68F9
:103BF0002B430D4DA84201D0B04205D123F0080758
:103C0000CB683B4323F00403A84201D0B04205D166
:103C10004D6922F4407215438A692A4342608461E7
:103C2000496841630362F0BD0000014000040140A7
:103C3000F0B5026A22F010020262026A43688469E7
:103C40000D6824F4E64444EA05248D6822F020023D
:103C500042EA05120F4D104EA84201D0B04206D1E3
:103C6000CF6822F0800242EA071222F04002A84206
:103C700001D0B04207D14D6923F4406343EA850384
:103C80008D6943EA85034360846149688163026208
:103C9000F0BD00000000014000040140F0B5026AE0
:103CA00022F480720262026A4368C46922F40072DC
:103CB00024F073050C68124E2C438D6842EA0522ED
:103CC0000E4DA84201D0B04206D1CF6822F4006266
:103CD00042EA072222F48062A84201D0B04207D112
:103CE0004D6923F4405343EA05138D6943EA0513F4
:103CF0004360C4614968C1630262F0BD00000140D5
:103D00000004014030B5026A22F480520262046A63
:103D10004268C3690D6823F4E64343EA05238D68CE
:103D200024F4005444EA0534084DA84202D0084D5A
:103D3000A84204D14D6922F4804242EA85124260D1
:103D4000C36149680164046230BD000000000140A5
:103D5000000401407CB50E46154604460146FF238B
:103D600014220F48FFF7C6FB20783A2817D12B46BC
:103D700032460CA1601CFCF7EBFA02280FD101AB14
:103D80009FED0A0A6A468DED000A8DED010A29466B
:103D9000304602F059FF14212046FCF7CDFA7CBDD5
:103DA0003802002025662C25663A0000000000003D
:103DB00010B5806B0021C185C184FFF7B7F910BD34
:103DC00001680C3151E8002F22F4907241E8002381
:103DD000002BF5D10168143151E8002F22F00102C7
:103DE00041E80023002BF5D1016B012909D10168BD
:103DF0000C3151E8002F22F0100241E80023002B83
:103E0000F5D1202180F83E1000210163704708B5EC
:103E100090F83E10222901D0022008BD82684FF49C
:103E200080539A4201D1016921B1816A9A421BD023
:103E30004AB10AE00268816A5268C2F308020A8045
:103E4000816A891C08E0026972B10268526802F056
:103E50007F020A70816A491C8162C18D491E090472
:103E6000090CC18503D019E002685268F1E70168C6
:103E7000CA6822F02002CA600168CA6822F480720F
:103E8000CA6001684A6922F001024A61202180F873
:103E90003E10016B012903D0FFF78CFB002008BD09
:103EA0000021016301680C3151E8002F22F010025B
:103EB00041E80023002BF5D101680A68D20602D53B
:103EC0000A6849680091818DFFF72FF9E6E7000045
:103ED00070B5044600680169E26821F4405111435D
:103EE00001612169A068E2690843616911430843DF
:103EF0002168CA6849F20C639A430243CA60206889
:103F00004169A26921F4407111434161314920683E
:103F1000884202D03049884202D1FEF763FC01E0BA
:103F2000FEF750FCE2690023192164253226B2F520
:103F3000004F626828D0A0FB0101930F9200FCF7AC
:103F4000B1F90146B0FBF5F06FF01802504301EBF8
:103F5000800006EB0010B0FBF5F000F0F002B1FBC2
:103F6000F5F002EB0012B1FBF5F06FF018035843C7
:103F700001EB800006EB0010B0FBF5F000F00F0045
:103F800021681044886070BDA0FB010192185B415C
:103F9000FCF788F90146B0FBF5F00201B1FBF5F042
:103FA0006FF01803584301EB800006EBC000B0FB34
:103FB000F5F000F0F80002EB4002B1FBF5F05843D9
:103FC00001EB800006EBC000B0FBF5F000F007004D
:103FD000D6E7000000100140001401402DE9F04137
:103FE000984617460E460446069D27E0681C25D0D5
:103FF0002DB1FEF725FAA0EB0800A8421ED92068D3
:104000000C3050E8001F21F4D07140E80012002A63
:10401000F5D12068143050E8001F21F0010140E87C
:104020000012002AF5D1202084F83D0084F83E00DB
:10403000002084F83C000320BDE8F081206800687F
:1040400036EA000004D00020B842CFD00020F3E7C9
:104050000120F9E70148FFF76BB80000F4010020E8
:10406000FEE7000070B54FF4FA642DED028B43F6C5
:1040700098259FED1E8ADFED1E8AB2EE041AF0EE3F
:10408000480AB0EE680A23462A4603211948FFF77A
:104090005FFC184844F62066B0EE481AF0EE480A75
:1040A000B1EE020A2346324603216C38FFF750FC7A
:1040B0001048B2EE041AF0EE480AB0EE680A234641
:1040C0002A460321E430FFF743FCB0EE481AF0EE35
:1040D000480ABDEC028B23463246BDE870400548D5
:1040E0000321B1EE020A7830FFF732BC0000000075
:1040F0000000E143684F00200FB4054B10B503A941
:10410000044A029800F00EFB10BC5DF814FB00009E
:10411000594F0008AC00002003B4019841000098FA
:1041200050EAC12018BF04204A0D18BF40F001001A
:1041300040F2FF72B2EB515F08BF40F0020001286D
:1041400008BF052002B070470907090E002804DBEC
:1041500000F1E02080F80014704700F00F0000F13B
:10416000E02080F8141D704770B59B482DED020BC0
:104170002DED068B079D25F00044A04218DC9748E2
:10418000844202DC0AD1069840B19DED060BBDECDD
:10419000068B02B0BDE8704000F0CEB9002DCCBF58
:1041A0009FED8F0B9FED900BBDEC068B02B070BDA9
:1041B0008F48A04215DD8F48A042D8BF4FF0FF3492
:1041C00058DD9DED060B51EC100BFFF7A5FF042801
:1041D00008BF00F0BDF99DED060BBDEC068B02B0EB
:1041E00070BD9DED060B51EC100B00F0A9FECDE962
:1041F000060181489FED828BA0423CDD8248A042AF
:104200001FDD00249FED82AB9DED060B53EC1A2BB6
:1042100051EC100BFCF754FA9DED060B41EC190B19
:1042200053EC1A2B51EC100BFCF7F1FA53EC182B52
:10423000FCF7E7FA53EC192BFCF75BFBCDE9060121
:1042400049E09DED060B012453EC182B51EC100BAB
:10425000FCF736FA9DED060B41EC190B53EC182BCD
:1042600051EC100BFCF7CDFA53EC192BFCF741FB8A
:10427000CDE906012FE06848A0421FDD02249FED32
:10428000689B9DED060B53EC192B51EC100BFCF7C2
:10429000BEFA53EC182BFCF713FA9DED060B41EC1C
:1042A000180B53EC192B51EC100BFCF7AAFA53EC3A
:1042B000182BFCF71EFBCDE906010CE09DED060B6B
:1042C000032453EC102B9FED580B51EC100BFCF713
:1042D00010FBCDE906019DED060B53EC102B51ECC4
:1042E000100BFCF794FA41EC180B53EC182BFCF76D
:1042F0008EFA41EC190B4E480621B0EE490AF0EE59
:10430000690A784400F09CF853EC182B51EC100B20
:10431000FCF77DFA41EC180B4648B0EE490AF0EE86
:10432000690A0521784400F08BF853EC192B51EC05
:10433000100BFCF76CFA41EC100B51EC180B53EC22
:10434000102B002C0EDAFCF7BBF99DED061B53EC8D
:10435000112BFCF75CFA9DED061B53EC112BFCF7BF
:1043600053FA35E0FCF7ACF99DED061B53EC112B2D
:10437000FCF74DFA41EC100B2F48784400EBC400D9
:1043800090ED001B51EC100B53EC112BFCF739FA9C
:104390009DED061B53EC112BFCF733FA41EC100B8F
:1043A0002648784400EBC40090ED001B51EC100B44
:1043B00053EC112BFCF728FA41EC100B002DA2BF97
:1043C000BDEC068B02B070BD51EC100B81F00041CA
:1043D00041EC100B01E70000000010440000F07FEA
:1043E000182D4454FB21F93F182D4454FB21F9BFEB
:1043F0000000DC3F0000203E0000F33F0000000012
:10440000000000000000F03F0000E63F0000000058
:104410000000000000000040008003400000000099
:10442000000000000000F83F000000000000F0BFA6
:10443000FA2A0000B02A00003A2A0000F2290000FF
:1044400070B504462DED028B4D1E00EBC500B0EE9D
:10445000408AF0EE608A90ED000B35F0060017D030
:1044600053EC182B51EC100BFCF7D1F941EC100B6D
:104470006D1E04EBC50090ED001B51EC100B53ECCE
:10448000112BFCF71DF941EC100B35F00600E7D1BC
:10449000022D36D0042D1CD0062D1CBFBDEC028B86
:1044A00070BD53EC182B51EC100BFCF7B0F994EDE8
:1044B0000A1B53EC112BFCF703F953EC182BFCF7F8
:1044C000A6F994ED081B53EC112BFCF7F9F841EC1D
:1044D000100B53EC182B51EC100BFCF798F994EDE2
:1044E000061B53EC112BFCF7EBF853EC182BFCF7E5
:1044F0008EF994ED040B53EC102BFCF7E1F841EC32
:10450000100B53EC182B51EC100BFCF780F994EDC9
:10451000021B53EC112BFCF7D3F853EC182BFCF7D0
:1045200076F994ED001B53EC112BFCF7C9F8BDECA8
:10453000028B41EC100B70BD10B553EC102B51ECFD
:10454000100BFCF7BDF841EC100B10BD0000000093
:104550009FED050B10B553EC102B51EC100BFCF735
:1045600056F941EC100B10BD0000000000000010D7
:1045700002E008C8121F08C1002AFAD1704770472C
:10458000002001E001C1121F002AFBD1704700008A
:104590002DE9FF5F82B00021DDE90430020DDDF876
:1045A00040B0034318D044F61050A2F2FF32424309
:1045B0001514119801281FD0A5EB0B00401C5FEAD1
:1045C000000A4FF000064E4FDFF83891B0465046D3
:1045D00015D5CAF1000413E0119801244AA301285B
:1045E00001D16FEA0B010298119AC0E90031C0E9CC
:1045F000024206B0BDE8F09FCBF10000DFE70446C1
:104600000021404A491842EB0450CDE9001012E065
:10461000E00707D032463B4640464946FCF7F7F8EC
:104620008046894632463B4610461946FCF7EFF86D
:1046300006460F466410002CEAD1DDE90401DDE9ED
:104640000023BAF1000F06DAFCF7E1F842464B46C8
:10465000FCF7DDF805E0FCF74CF942464B46FCF769
:1046600048F904460E460022284BFCF74BFB03D8C2
:104670004FF0FF30014607E00022254B204631462F
:10468000FCF71EF8FCF726FB102409E0002C0ADBDF
:104690000A220023FBF706FE039B30321A55641EE4
:1046A00050EA0102F2D1641C039AC4F111031444CC
:1046B000119A012A03D0012208430DD10AE00843D0
:1046C00004D000204FF0110B119072E7A3EB0B0503
:1046D0006D1E0DE05B4504DD4FF0000205F10105A4
:1046E00004E003DA4FF00002A5F10105002AECD046
:1046F00002981199C0E90231C0E9004579E700004C
:10470000000014400000F03F300000000000F043C3
:104710000000E03F30380A2801D201207047002015
:10472000704700002DE9FF4F95B09B46894606462D
:1047300000250FE2252877D100242746F84A0121D9
:10474000059400E0044316F8013F203B01FA03F012
:104750001042F7D130782A2811D06FF02F0330782B
:10476000A0F13002092A16D8059A44F0020402EB9F
:10477000820203EB42021044761C0590EFE759F8E1
:10478000042B0592002A03DA504244F400540590A9
:1047900044F00204761C30782E2816D116F8010F4A
:1047A00044F004042A280DD06FF02F023078A0F1D5
:1047B0003003092B09D807EB870302EB4303C71823
:1047C000761CF3E759F8047B761C30786C280FD000
:1047D00006DC4C2817D068280DD06A2814D104E0D4
:1047E000742810D07A280FD10DE044F400140AE0A8
:1047F00044F4801401E044F440147278824202D1FF
:1048000004F58014761C761C307866280BD013DCF7
:10481000582877D009DC002875D04528F6D04628DE
:10482000F4D047281AD19DE118E0632835D06428D8
:1048300079D0652812D195E1702873D008DC6728FB
:10484000F1D069286FD06E280DD06F2806D1B5E061
:1048500073282CD0752875D0782874D05A461799AB
:1048600090476D1C75E1C4F30250022809D003285B
:104870000DD0D9F8001004280DD00D6009F10409FD
:1048800067E1D9F80010EA17C1E90052F6E7D9F854
:1048900000100D80F2E70D70F0E719F8041B8DF899
:1048A000001000208DF80100EA46012003E059F8CD
:1048B00004AB4FF0FF3061074FF0000102D40DE070
:1048C00008F101018846B9420FDA8045F8DB1AF891
:1048D00008100029F4D108E008F10101884681425E
:1048E000FADB1AF808100029F6D105985B46A0EB10
:1048F000080721463846179A00F094FA284400EB3E
:10490000080507E04DE029E10DE01AF8010B5A46D1
:1049100017999047B8F10108F7D25B46214638460F
:10492000179A13E142E00A220092C4F302524FF0B8
:10493000000A022A08D059F804CB032A4FEAEC7186
:104940000AD00DE029E02AE009F1070121F0070271
:10495000F2E802C1914609E00FFA8CFC4FEAEC71D3
:10496000042A03D14FFA8CFC4FEAEC71002907DAD4
:104970000A460021DCF1000C61EB02012D2202E06D
:10498000220504D52B228DF80420012203E0E20742
:1049900001D02022F7E7904659E00A2102E01022D8
:1049A0000DE010214FF0000A00910BE010224FF0B3
:1049B000000A44F004040827009203E008224FF0A4
:1049C000000A0092C4F30252022A05D059F804CB1F
:1049D0000021032A08D009E009F1070121F00702AC
:1049E000F2E802C1914605E01FFA8CFC042A01D1CD
:1049F0000CF0FF0C4FF00008220728D5702806D0D5
:104A0000009B83F0100353EA0A0305D00EE0402216
:104A10008DF80420012208E05CEA010206D0302271
:104A20008DF804208DF8050002229046009B83F04B
:104A3000080353EA0A030AD15CEA010201D16207C2
:104A400005D530228DF804204FF001087F1E58282C
:104A500004D034A003900EA802900DE036A0F9E730
:104A600053466046009AFBF71DFC84460398825C1F
:104A70000298401E029002705CEA0100F0D1029898
:104A800006A9081A00F1200A600702D524F4803430
:104A900000E00127574502DDA7EB0A0000E00020F7
:104AA00000EB0A01009005984144401A0590E0038C
:104AB00006D45B462146179A059800F0B3F90544E1
:104AC000002706E001A85A46C05D179990476D1C63
:104AD0007F1C4745F6DBE0030CD55B462146179A61
:104AE000059800F09FF9054404E030205A461799D4
:104AF00090476D1C0099481E00900029F5DC08E0E5
:104B0000029802995A460078491C029117999047D9
:104B10006D1CBAF10001AAF1010AF1DC65E10000A7
:104B20000928010030313233343536373839616283
:104B30006364656600000000303132333435363747
:104B400038394142434445460000000000F058F91E
:104B50000544761C307800287FF4ECAD19B0284667
:104B6000BDE8F08F620700D4062709F1070222F0A2
:104B7000070CFCE80223E14603F000485FEA080C5A
:104B800002D00FF2702C0DE05FEA045C02D50FF248
:104B9000682C07E05FEAC47C02D00FF2602C01E0D1
:104BA000AFF2700C4FF0FF3823F00043CDF850C047
:104BB00065280CD006DC452809D046281DD047289A
:104BC0003DD13DE0662818D067287ED138E000212D
:104BD000112F01DB112000E0781CCDE9000106A9AE
:104BE0000EA8FFF7D5FCDDE90F010E9A0391002115
:104BF000009207F1010A04914DE04FF00040009748
:104C0000CDE9011006A90EA8FFF7C2FCDDE90F02ED
:104C100003920E9B11990022DDF80CA000930492E0
:104C200011B9791C00EB010AB7EB0A0004D4C0F1FA
:104C3000FF3007F1010A0490AAEB0700019044E05D
:104C4000012F00DA01270021112F01DD112000E0E2
:104C50003846CDE9000106A90EA8FFF799FCDDE969
:104C60000F010E9A0391002104910092BA46210788
:104C70000CD40399514500DA8A46BAF1010F05DDDB
:104C8000009AAAF10101515C302908D0B84202DA39
:104C900010F1040F06DA0121CDE9011015E0AAF1A7
:104CA0000101E9E7002805DC049901440491AAEB1D
:104CB000000102E0411C514500DD8A460499401A7A
:104CC000401C01904FF000400290200704D401984E
:104CD000504501DBCDF8048000208DF84F0002988C
:104CE0000DF14F07B0F1004F25D02B200E90029808
:104CF0004FF0020800280CDA404202902D200E905E
:104D000007E00A210298FBF7C9FE3031029007F84C
:104D1000011DB8F10001A8F10108F2DC0298002899
:104D2000EFD1791E0E980870307800F0200040F026
:104D3000450007F8020D12A8C01B00F107081498DF
:104D4000007800B1012000EB0A01019801EBE0714D
:104D500005984144401A401E0590E00306D45B4686
:104D60002146179A059800F05DF8054414980078DC
:104D700018B15A46179990476D1CE00324D55B463D
:104D80002146179A059800F04DF805441CE0049858
:104D9000002807DBDDE90301884203DD0098405C61
:104DA000179901E0179930205A469047049805F169
:104DB0000105401C04900198401E019004D12E2052
:104DC0005A46179990476D1CBAF10001AAF1010AE1
:104DD000DDDC05E017F8010B5A46179990476D1C6A
:104DE000B8F10001A8F10108F4DC5B462146179AEE
:104DF0000598ABE62D0000002B000000200000000D
:104E00002DE9F041044600251E461746880404D4C7
:104E100005E039462020B0476D1C641EF9D52846B0
:104E2000BDE8F0812DE9F041044600251E4690467C
:104E3000C80301D5302700E02027880404D505E009
:104E400041463846B0476D1C641EF9D52846BDE87A
:104E5000F081D0ED000AF4EEC00AF1EE10FA01DDA7
:104E600080ED000AD0ED000AB1EE400AF4EEC00A6F
:104E7000F1EE10FA01D280ED000A704710B58AB049
:104E800000210E220091CDE90412019102910391BB
:104E900006910121CDE90812079104466946FCF705
:104EA00085FC08B1FCF723FA02212046FCF708FC38
:104EB00008B1FCF71CFA2046FCF7D2FF002801D00D
:104EC000FCF715FA0AB010BD10B519482DED028B8C
:104ED000FDF7F8FE08211648FEF7B8F8042114483B
:104EE000FEF7B4F89FED138A0A23B6EE000AB0EE7F
:104EF000481AF0EE480A1A4604210F48FEF728FD2A
:104F00000D480A23B0EE481AF0EE480AB6EE000A41
:104F10001A4604216C30FEF71BFDB0EE480ABDECCA
:104F2000028BDFED060ABDE8104000F02DBF000047
:104F3000AC01002000000000C0500020000007432A
:104F400082B0CDE9000121F0004001909DED000B01
:104F500002B051EC100B704738B504468DF80000D4
:104F60000223012269460248FEF726FB204638BD8F
:104F70003802002070B50D460446FCF723FB0521DE
:104F80002046FCF7C9FA2046FCF766FA800503D5EF
:104F90002046FCF763FA84B22046FBF72AFD9FED1A
:104FA000081B53EC112BFBF732FC9FED071B53EC56
:104FB000112BFBF79EFCFBF755FD286070BD000030
:104FC00000000000008076400000000000FEAF40BE
:104FD00010B58389C3810A8852BA82814C88D31A5A
:104FE00064BA04808C88B3F5805F64BA24B200EEA2
:104FF000104AB8EEC00A80ED010A897981724169D0
:1050000001DD491E03E013F5805F01DA491C4161AF
:1050100002EB4131028A891A816110BDFDF71EFA47
:10502000FEF706FDFEF7D2FBFEF798FBFEF752FBFC
:10503000FEF772FBFEF76EFCFEF750FCFEF718FB66
:10504000FEF70CFC00F03EF8FEF79EFB00F04CF87B
:10505000FEE710B58AB0044628216846FBF76CF9D4
:105060000021059101910091029103910491069113
:1050700001210E20CDE90810079169462046FCF772
:1050800095FB08B1FCF733F902212046FCF718FB29
:1050900008B1FCF72CF92046FCF7E2FE002801D00D
:1050A000FCF725F90AB010BD10B5EFF3058111B179
:1050B0006FF0050403E0002408B100F0E3FF204690
:1050C00010BD0000EFF3058010B16FF005007047D0
:1050D0000448016811B14FF0FF30704701210160B1
:1050E000002070477C00002010B5EFF3058010B160
:1050F0006FF0050010BD08480168012902D04FF08B
:10510000FF3010BD054A002182F8141D0221016004
:1051100001F020F8002010BD7C0000200BE000E032
:105120002DE9FF414FEA01034FF00005EFF3058140
:10513000039549BB40B38027182100244AB3166861
:1051400006B1344696691EB13146761E382E02D21B
:105150001679F60703D0002004B0BDE8F081566947
:1051600006B1B708D2F808C0BCF1000F0DD0D56861
:105170005C2D18D312693AB136B18DE806103A4663
:10518000214601F080FB03900DE0D6685EB91269FC
:105190004AB903AACDE90012BAB2214601F046FB92
:1051A000012800D003950398D6E7000000B530EE43
:1051B000C01A80ED080AC0ED050A80ED0B1AD0ED8B
:1051C000141A01469FED692A30EEC00AF5EEC01AA6
:1051D000B1EE400AF1EE10FA0ED0B5EEC01AF1EEC3
:1051E00010FA02DDF0EE410A01E0F0EE400AF4EEC2
:1051F000E10AF1EE10FA12DCD1ED150AF5EEC00A63
:10520000F1EE10FA0ED0B5EEC01AF1EE10FA01DD93
:10521000B0EE410AB4EEE00AF1EE10FA02D2B0EEBE
:10522000420A00BD886D01F13402032802D004282F
:1052300038D07AE091ED000A104620EE010A81EDA7
:105240000C0A91ED0D0AD1ED010A00EE810A81ED03
:105250000D0A91ED0A0AD1ED020A31EE400A20EE64
:10526000200A81ED0E0A91ED180AB8EE400AFFF708
:10527000F0FD91ED0C0AD1ED0D0A01F13C0030EE8C
:10528000200AD1ED0E0A30EE200A81ED0F0A91EDD1
:10529000170AB8EE400AFFF7DCFD91ED0F0A81ED29
:1052A000100A42E091ED0A0AD1ED001A104671EEA3
:1052B000400A60EEA10AC1ED0C0AD1ED010A60EED0
:1052C000810AC1ED0D0AF0EE000A00EE601A91EDC0
:1052D000090AD1ED020A31EE000A20EE200A81ED22
:1052E0000E0A91ED180AB8EE400AFFF7B2FD91EDF3
:1052F0000C0AD1ED0D0A01F1480030EE200AD1ED83
:105300000E0A30EE200A81ED110AD1ED130A30EEBB
:10531000800A81ED120A91ED170AB8EE400AFFF7F4
:1053200098FD91ED120A81ED130A91ED0A0A81EDC3
:10533000090A91ED0B0A81ED0A0A91ED070A81ED48
:10534000060A91ED080A81ED070A91ED040A81ED44
:10535000030A91ED050A81ED040A886D032802D045
:1053600091ED120A00BD91ED0F0A00BD0000000092
:1053700000F1580C8CE80E0080EC030A704780ECBA
:10538000030A70472DE9F041134C0F460546E668C5
:105390002068001D00F042FD681C07D137B121686C
:1053A000BDE8F0410D48091D00F088BD2068354476
:1053B000B5424560216805D2A06BBDE8F041091DEA
:1053C00000F064BD606B091D00F060FDA06A8542BD
:1053D00000D2A562BDE8F0812C0000201408002056
:1053E0002DE9F041054600F075FD2D4CA068401CEC
:1053F000A06020682B4F10B1606930B32BE02560AE
:10540000A068012827D1002606EB860007EB800064
:1054100000F02EFD761C382EF6D3234800F028FD30
:105420002148143000F024FD1F48283000F020FDF2
:105430001D483C3000F01CFD1B48503000F018FDAA
:10544000194860631430A06305E02068E96AC06A07
:10545000884200D82560606A401C60626864E86A1F
:105460002169884200D9206100EB800007EB8000B1
:10547000291D00F023FD00F04DFD606900280CD0CF
:105480002068E96AC06A884207D208494FF0805014
:105490000860BFF34F8FBFF36F8FBDE8F08100004E
:1054A0002C00002064030020C407002004ED00E06D
:1054B00038B500F00FFD104C2068C8B90F4800F057
:1054C000D7FC0E48143000F0D3FC0C48E0601430D8
:1054D00020610A4B0020F03B009003F150021021A4
:1054E0000A2000F045FF206010B105A100F094FDF6
:1054F000BDE8384000F00EBD68000020180900200B
:10550000546D72510000000030B4026C0B46002A4A
:105510000BD0C1681144C1608468A14201D3016805
:10552000C16030BC1846FAF7EEBE30BC70472DE9BA
:10553000F041856B174604460026026C82B1C7B164
:10554000E068FAF7E0FEE168206C091AE160226881
:10555000914202D2A168081AE060022F16D017E02B
:105560002068A8B9A06801F031FA06460020A060C2
:105570000EE06068FAF7C7FE216C6068084460605E
:10558000A168884204D32068606001E005B16D1E07
:105590006D1CA5633046BDE8F08110B5044690F857
:1055A000590058B101280CD002280FD0502080F3A8
:1055B0001188BFF34F8FBFF36F8FFEE7206B00F0B2
:1055C000BDFC2046BDE8104000F0B8BC10BD000096
:1055D00010484FF47051420706D0C01D0D4920F00D
:1055E0000700411AC1F570510B4A00230144C2E97A
:1055F00000030839183A21F0070111604B600B6075
:105600000B1AC0E9001393604FF0004053605061E3
:1056100070470000F80F002098000020144E154C31
:10562000A6F29C474FF08058DFF84C9012E000BF84
:1056300000F050FCF068C568281D00F0EFFBA06882
:10564000401EA0606068401E606000F063FC284659
:10565000FFF7A3FF60680028EAD138680128F9D96C
:10566000C9F80080BFF34F8FBFF36F8FF2E70000E0
:10567000000800202C00002004ED00E070B51D465D
:10568000049C51B1C4F80020C4E90F010121204657
:1056900000F0A2FE84F84C5070BD2460F4E70000D6
:1056A0002DE9F05F8846DDE90B94154683469100AD
:1056B0009A460A9EA522206BFAF737FE6FF0030187
:1056C000206B01EB8501084420F00707780707D01D
:1056D000502080F31188BFF34F8FBFF36F8FFEE729
:1056E0000025B8F1000F0FD05FF00000221818F865
:1056F000001082F8341018F8001011B1401C102866
:10570000F4D384F8435001E084F83450382E00D3A9
:105710003726E662C4E91365201D00F0B4FB04F1EE
:10572000180000F0B0FB2461C6F138006462A0618B
:10573000656584F8585052465946384600F05AFA82
:105740002060B9F1000F01D0C9F80040BDE8F09F1A
:1057500030B5114900E011460A688242FBD34B681C
:105760005C18844203D14068184448600846436886
:105770001C18944209D1084C183C2468A24209D054
:1057800052681A4442600A6812680260814200D07E
:10579000086030BD0460F9E79800002070B500246F
:1057A00041600B4D0061914206D8D11A8269914245
:1057B00006D2011D286907E09A4203D2994201D31B
:1057C000012403E0011DE86800F060FB204670BD85
:1057D0006800002010B5044600F07CFBA06B28B1E7
:1057E0005FF0000400F096FB204610BD0124F9E7AD
:1057F00030B589B03C4D6EE00498002806DADDE94A
:105800000601059A90470498002864DB069C6069AD
:1058100010B1201D00F002FB03A800F0D7F80246EB
:1058200004980A2857D2DFE800F00505052D334A11
:1058300005052D3394F8280040F0010084F8280075
:105840000599A069059B01442046FFF7A7FF68B3AF
:10585000216A2046884794F8280040073BD500205D
:1058600000900598A169002342181946204601F0CE
:10587000B7F9D8B9502080F31188BFF34F8FBFF329
:105880006F8FFEE714F8280F20F00100207022E04F
:1058900094F8280040F0010084F828000598A061E1
:1058A00028B1811813462046FFF778FF13E05020F7
:1058B00080F31188BFF34F8FBFF36F8FFEE794F82B
:1058C0002800810703D4204600F038FB03E020F0D5
:1058D000010084F82800002204A9286800F0D0FE06
:1058E000002889D109B030BD680000202DE9FC41B5
:1058F0000F46054600F072FC01A800F067F8044668
:10590000019818B101F0DAF8BDE8FC81254EAFB17D
:1059100030690068D0B30027291B3A46306800F090
:105920008FFB01F0CBF80028EED11F494FF08050DB
:105930000860BFF34F8FBFF36F8FE5E7A542EBD849
:1059400001F0BCF8F0682746C068C468201D00F06C
:1059500065FA94F82800410719D5A0692B4641192A
:105960003A462046FFF71AFFA8B100200346014639
:1059700000902A46204601F033F960B9502080F3A8
:105980001188BFF34F8FBFF36F8FFEE707E020F062
:10599000010084F82800216A20468847B4E70127DF
:1059A000BAE700006800002004ED00E00648416B03
:1059B000096829B1416BC968C96849688162704743
:1059C0004FF0FF31FAE700002C00002070B50546CB
:1059D00000F092FF064E0446B068844203D200F005
:1059E00009F8012000E0002028602046B46070BD66
:1059F00068000020F8B5194D20E0C068C46806684A
:105A0000201D00F00BFA216A2046884794F82800F0
:105A1000400713D5A0693044B04206D924616060C4
:105A2000211DE86800F032FA08E000200346014634
:105A300000903246204601F0D3F838B1E86801689A
:105A40000029DAD12969C5E90310F8BD502080F397
:105A50001188BFF34F8FBFF36F8FFEE76800002000
:105A600008484068401C4FF0500080F3118804D073
:105A7000BFF34F8FBFF36F8FFEE7BFF34F8FBFF3BF
:105A80006F8FFEE7A0000020074CE068016841B17D
:105A9000C0680021D0F80000FFF728FFFFF7A8FE3C
:105AA000F3E701210020F7E7680000202DE9F0412D
:105AB000044600F00FFA94F9455004F1240609E079
:105AC000606A48B1304600F0C1FF08B100F008FB41
:105AD0006D1E6DB2002DF3DC4FF0FF3684F845608B
